:100000000C9434000C9451000C9451000C94510049
:100010000C9451000C9451000C9451000C9451001C
:100020000C9451000C9451000C9451000C94160245
:100030000C9451000C9451000C94F1010C9451005B
:100040000C9451000C9451000C9451000C945100EC
:100050000C9451000C9451000C9451000C945100DC
:100060000C9451000C94510011241FBECFEFD8E026
:10007000DEBFCDBF11E0A0E0B1E0ECEBF6E002C0E6
:1000800005900D92AE35B107D9F721E0AEE5B1E0AC
:1000900001C01D92AD36B207E1F70E942F030C9408
:1000A0005C030C94000087B1877C87B988B18863B2
:1000B00088B90895CF92DF92EF92FF92CF93DF93AA
:1000C00000D000D000D0CDB7DEB7AB01BC0186E0D8
:1000D000E1E1F1E0DE01119601900D928A95E1F7E0
:1000E00020E034C0E22FF0E0EE0FFF1F81E090E04F
:1000F0008C0F9D1FE80FF91F0190F081E02D86B154
:1001000090E0008002C0959587950A94E2F791E00F
:1001100080FF90E0892F3181931711F04483918300
:1001200094816A017B01C91AD108E108F10893E3BF
:10013000C916D104E104F10440F09281891729F035
:100140008283811102C081E083832F5F233050F2CC
:1001500026960FB6F894DEBF0FBECDBFDF91CF91CC
:10016000FF90EF90DF90CF90089580910D0188234C
:1001700019F010920D0181E0089580910801882303
:1001800019F01092080181E00895809103018823FD
:1001900019F01092030181E008958BB18C678BB93F
:1001A00085B1816085B908958AB18C678AB984B1B7
:1001B000816084B90E94CD000895CF93C82F8A3002
:1001C00018F00E94CD0097C00E94CD008C2F90E0C7
:1001D000FC01EE0FFF1FEE0FFF1FEE0FFF1FE81BCE
:1001E000F90BE95EFE4F2081211104C02BB12F7B5A
:1001F0002BB903C02BB120642BB9FC01EE0FFF1FFC
:10020000EE0FFF1FEE0FFF1FE81BF90BE95EFE4F1D
:100210002181211104C02BB12F7D2BB903C02BB13B
:1002200020622BB9FC01EE0FFF1FEE0FFF1FEE0F38
:10023000FF1FE81BF90BE95EFE4F2281211104C06C
:100240002BB12B7F2BB903C02BB124602BB9FC0140
:10025000EE0FFF1FEE0FFF1FEE0FFF1FE81BF90B46
:10026000E95EFE4F2381211104C02BB1277F2BB9FA
:1002700003C02BB128602BB9FC01EE0FFF1FEE0F5E
:10028000FF1FEE0FFF1FE81BF90BE95EFE4F2481F5
:10029000211104C02BB12F7E2BB903C02BB12061DB
:1002A0002BB9FC01EE0FFF1FEE0FFF1FEE0FFF1F1C
:1002B000E81BF90BE95EFE4F2581211104C02BB12B
:1002C0002F7D2BB903C02BB120622BB9FC01EE0F9F
:1002D000FF1FEE0FFF1FEE0FFF1FE81BF90BE95E7C
:1002E000FE4F8581811104C085B18F7D85B903C022
:1002F00085B1816085B9CF91089584B18E6184B94B
:1003000084B1806284B987B18C6187B9089580FF18
:1003100004C095B1926095B903C095B19D7F95B920
:1003200081FF04C095B1946095B903C095B19B7FDE
:1003300095B982FF04C095B1986095B903C095B195
:10034000977F95B983FF04C085B1806185B9089511
:1003500085B18F7E85B9089580FF04C095B1926004
:1003600095B903C095B19F7D95B981FF04C098B13F
:10037000916098B903C098B19E7F98B982FF04C07C
:1003800098B1926098B903C098B19D7F98B983FFE6
:1003900004C088B1846088B9089588B18B7F88B91A
:1003A000089585B1817E85B985B18F7D85B988B184
:1003B000887F88B9089582E084BD93E095BD99EF68
:1003C00097BD80936E00E1E8F0E088E08083808153
:1003D0008560808388E09DE3909389008093880006
:1003E00008951F920F920FB60F9211248F939F932F
:1003F000AF93BF938091630190916401A0916501D7
:10040000B09166010196A11DB11D80936301909387
:100410006401A0936501B0936601BF91AF919F9174
:100420008F910F900FBE0F901F9018951F920F92F3
:100430000FB60F9211248F9381E0809362018F9108
:100440000F900FBE0F901F901895F8946091630164
:10045000709164018091650190916601789408958E
:1004600080E00E94DD000E94D1011092690110928B
:100470006B0110926A010E94B5008823B1F081E0FF
:1004800080936C0195E09093100110926701809326
:1004900068011092850010928400EFE6F0E0808100
:1004A0008260808385E00E94DD0008950E9425021D
:1004B00080916201882331F1109262010E9425022D
:1004C00080916801882319F0109268010895809145
:1004D00010018823B9F080911001815080931001A0
:1004E000809110010E94DD008091100181110AC0ED
:1004F00082E080936C010E94CD00EFE6F0E0808105
:100500008D7F808308950E94BD008823B9F080917B
:100510006901893098F4809169018F5F8093690146
:10052000809169010E94870180916901893031F4CD
:1005300081E080936A0183E080936C010E94C50092
:100540008823B9F080916B01882399F080916B0129
:100550008F5F80936B0180916B010E94AC01809151
:100560006B01893031F482E080936A0183E08093EB
:100570006C0180916901893049F480916B01893067
:1005800029F483E080936A0180936C010895CF92EF
:10059000DF92EF92FF920F931F9380916A01813057
:1005A00049F40E94DD008FE00E94870180E00E94F4
:1005B000AC0149C080916A01823049F40E94DD009B
:1005C0008FE00E94AC0180E00E9487013CC08091D6
:1005D0006A018330C1F50E94250200915E011091ED
:1005E0005F0120916001309161016B017C01C01AB3
:1005F000D10AE20AF30A45EFC41641E0D406E10449
:10060000F10478F060935E0170935F018093600164
:100610009093610181E090910F01911180E08093AE
:100620000F0180910F01882351F080E00E94DD00CE
:100630008FE00E9487018FE00E94AC0104C00E94FD
:10064000CD000E94D1010E94B500811110926C0171
:100650001F910F91FF90EF90DF90CF9008950E942F
:100660007D010E94D4000E9453000E94DB01789417
:100670000E94CD000E94D1010E9425020E945A00D2
:1006800080916C01813049F028F0823049F083304C
:1006900051F00BC00E94300208C00E94560205C0F3
:1006A0000E94830202C00E94C7028FE39CE9019767
:0C06B000F1F700C00000E0CFF894FFCF8D
:1006BC00050101000004010100000301010000011B
:1006CC00050A010501000101010101010100000100
:1006DC000100000000010100010100010101010104
:1006EC0000000100010100000101010001010001F5
:1006FC0001010001010101010101010000000001E3
:0E070C000101010101010101010100010100D3
:00000001FF
