S01600004C616231204469676974616C20322E737265639E
S11300000C9434000C9451000C9451000C94510045
S11300100C9451000C9451000C9451000C94510018
S11300200C9451000C9451000C9451000C94160241
S11300300C9451000C9451000C94F1010C94510057
S11300400C9451000C9451000C9451000C945100E8
S11300500C9451000C9451000C9451000C945100D8
S11300600C9451000C94510011241FBECFEFD8E022
S1130070DEBFCDBF11E0A0E0B1E0E2ECF6E002C0EB
S113008005900D92AE35B107D9F721E0AEE5B1E0A8
S113009001C01D92AC36B207E1F70E9432030C9402
S11300A05F030C94000087B1877C87B988B18863AB
S11300B088B90895CF92DF92EF92FF92CF93DF93A6
S11300C000D000D000D0CDB7DEB7AB01BC0186E0D4
S11300D0E1E1F1E0DE01119601900D928A95E1F7DC
S11300E020E034C0E22FF0E0EE0FFF1F81E090E04B
S11300F08C0F9D1FE80FF91F0190F081E02D86B150
S113010090E0008002C0959587950A94E2F791E00B
S113011080FF90E0892F3181931711F044839183FC
S113012094816A017B01C91AD108E108F10893E3BB
S1130130C916D104E104F10440F09281891729F031
S11301408283811102C081E083832F5F233050F2C8
S113015026960FB6F894DEBF0FBECDBFDF91CF91C8
S1130160FF90EF90DF90CF90089580910D01882348
S113017019F010920D0181E00895809108018823FF
S113018019F01092080181E00895809103018823F9
S113019019F01092030181E008958BB18C6F8BB933
S11301A085B1816085B908958AB18C6F8AB984B1AB
S11301B0816084B90E94CD000895CF93C82F8A30FE
S11301C018F00E94CD0097C00E94CD008C2F90E0C3
S11301D0FC01EE0FFF1FEE0FFF1FEE0FFF1FE81BCA
S11301E0F90BE95EFE4F2081211104C02BB12F7B56
S11301F02BB903C02BB120642BB9FC01EE0FFF1FF8
S1130200EE0FFF1FEE0FFF1FE81BF90BE95EFE4F19
S11302102181211104C02BB12F7D2BB903C02BB137
S113022020622BB9FC01EE0FFF1FEE0FFF1FEE0F34
S1130230FF1FE81BF90BE95EFE4F2281211104C068
S11302402BB12B7F2BB903C02BB124602BB9FC013C
S1130250EE0FFF1FEE0FFF1FEE0FFF1FE81BF90B42
S1130260E95EFE4F2381211104C02BB1277F2BB9F6
S113027003C02BB128602BB9FC01EE0FFF1FEE0F5A
S1130280FF1FEE0FFF1FE81BF90BE95EFE4F2481F1
S1130290211104C02BB12F7E2BB903C02BB12061D7
S11302A02BB9FC01EE0FFF1FEE0FFF1FEE0FFF1F18
S11302B0E81BF90BE95EFE4F2581211104C02BB127
S11302C02F772BB903C02BB120682BB9FC01EE0F9B
S11302D0FF1FEE0FFF1FEE0FFF1FE81BF90BE95E78
S11302E0FE4F8681811104C085B18E7F85B903C01C
S11302F085B1816085B9CF91089584B18E6184B947
S113030084B1806284B987B1876087B9089580FF1A
S113031004C095B1926095B903C095B19D7F95B91C
S113032081FF04C095B1946095B903C095B19B7FDA
S113033095B982FF04C095B1986095B903C095B191
S1130340977F95B983FF04C085B1806185B908950D
S113035085B18F7E85B9089580FF04C095B1906200
S113036095B903C095B19F7D95B981FF04C098B13B
S1130370916098B903C098B19E7F98B982FF04C078
S113038098B1926098B903C098B19D7F98B983FFE2
S113039004C088B1846088B9089588B18B7F88B916
S11303A0089585B1817E85B985B18F7D85B988B180
S11303B0887F88B9089582E084BD93E095BD99EF64
S11303C097BD80936E00E1E8F0E088E0808380814F
S11303D08560808388E09DE3909389008093880002
S11303E008951F920F920FB60F9211248F939F932B
S11303F0AF93BF938091640190916501A0916601D0
S1130400B09167010196A11DB11D80936401909381
S11304106501A0936601B0936701BF91AF919F916D
S11304208F910F900FBE0F901F9018951F920F92EF
S11304300FB60F9211248F9381E0809363018F9103
S11304400F900FBE0F901F901895F894609164015F
S11304507091650180916601909167017894089587
S113046080E00E94DD000E94D10110926801109288
S11304706A01109269010E94B500882391F081E01D
S113048080936B0185E08093100110928500109297
S11304908400EFE6F0E080818260808385E00E9442
S11304A0DD00089580916301882379F1109263013E
S11304B080916201811109C081E08093620184E02E
S11304C0809310010E94DD0008958091100188231B
S11304D061F080911001815080931001809110018E
S11304E00E94DD0080911001089580911001811116
S11304F00CC082E080936B01109262010E94CD00D7
S1130500EFE6F0E080818D7F808308950E94BD0036
S11305108823B9F080916801893098F4809168014A
S11305208F5F80936801809168010E9487018091A8
S11305306801893031F481E08093690183E080931C
S11305406B010E94C5008823B9F080916A0189304B
S113055098F480916A018F5F80936A0180916A01A7
S11305600E94AC0180916A01893031F482E0809369
S1130570690183E080936B0180916801893049F4BB
S113058080916A01893029F483E080936901809322
S11305906B010895CF92DF92EF92FF920F931F9316
S11305A080916901813049F40E94DD008FE00E944E
S11305B0870180E00E94AC0149C0809169018230CA
S11305C049F40E94DD008FE00E94AC0180E00E94AB
S11305D087013CC0809169018330C1F50E942502E6
S11305E000915E0110915F012091600130916101E1
S11305F06B017C01C01AD10AE20AF30A45EFC41662
S113060041E0D406E104F10478F060935E01709354
S11306105F01809360019093610181E090910F01EB
S1130620911180E080930F0180910F01882351F094
S113063080E00E94DD008FE00E9487018FE00E942D
S1130640AC0104C00E94CD000E94D1010E94B500FB
S1130650811110926B011F910F91FF90EF90DF9029
S1130660CF9008950E947D010E94D4000E945300FF
S11306700E94DB0178940E94CD000E94D1010E9467
S113068025020E945A0080916B01813049F028F0C4
S1130690823049F0833051F00BC00E94300208C010
S11306A00E94520205C00E94860202C00E94CA0231
S11306B08FE39CE90197F1F700C00000E0CFF894C4
S10506C0FFCF66
S11306C20501010000040101000003010100000111
S11306D2050A0105010001000000000000010100FB
S11306E200010101010000010000010000000000FE
S11306F201010001000001010000000100000100ED
S113070200000100000000000000000101010100DE
S11107120000000000000000000001000000D4
S9030000FC
